L21000000030KITSCHY STUFF LLC                                                                                                                                                                               AFLAL           3451 N. 31 AVENUE                                                                   HOLLYWOOD                     33021       3451 N. 31 AVENUE                                                                   HOLLYWOOD                   FL33021     US12202020              N        FL                                       FEIG                MARISSA       J       P3451 N. 31 AVENUE                         HOLLYWOOD                   FL33021    MGR PFEIG                MARISSA       J       3451 N. 31 AVENUE                         HOLLYWOOD                   FL33021                                                                                                                                                                                                                                                                                                                                                                                                                                                                                                                                                                                                                                                                        
L21000000040HAISAN TECH LLC                                                                                                                                                                                 AFLAL           11437 WATER OAK PL                                                                  DAVIE                         33330       11437 WATER OAK PL                                                                  DAVIE                       FL33330     US12212020              N        FL                                       NASIR               TALAL                 P11437 WATER OAK PL                        DAVIE                       FL33330    AMBRPIMRAN               HAISAM                11437 WATER OAK PL                        DAVIE                       FL33330                                                                                                                                                                                                                                                                                                                                                                                                                                                                                                                                                                                                                                                                        
L21000000050KEY HAND, LLC                                                                                                                                                                                   AFLAL           16877 E COLONIAL DRIVE                    SUITE 192                                 ORLANDO                       32820       16877 E COLONIAL DRIVE                    SUITE 192                                 ORLANDO                     FL32820       12202020              N        FL                                       MARTIN              KEVIN                 P17519 SAILFIN DR                          ORLANDO                     FL32820    AP  PMARTIN              KEVIN                 17519 SAILFIN DR                          ORLANDO                     FL32820    AP  PMONTOYA             KENNETH               1461 CANDLEWYCK DR                        ORLANDO                     FL32807                                                                                                                                                                                                                                                                                                                                                                                                                                                                                                                                        
P21000000010DARAYE & SERVICES, "CORP"                                                                                                                                                                       ADOMP           751 SE PARK DR                            101                                       HIALEAH                       33010       7810 W 28 AVE                             111                                       HIALEAH                     FL33018       12192020              N        FL                                       PALMERO TORRES      MODESTO       RSR     P751 SE PARK DR                            HIALEAH                     FL33010    P   PPALMERO TORRES      MODESTO       RSR     751 SE PARK DR APT 101                    HIALEAH                     FL33010    VP  PSAGUE GONZALEZ      JANET          JR     7810 W 28 AVE APT 111                     HIALEAH                     FL33018                                                                                                                                                                                                                                                                                                                                                                                                                                                                                                                                        
L21000000060PRECISION BUILD & DESIGN LLC                                                                                                                                                                    AFLAL           4718 PARADISE WAY S.                                                                ST. PETERSBURG                33705       4718 PARADISE WAY S.                                                                ST. PETERSBURG              FL33705       12202020              N        FL                                       BLACKMORE           THOMAS        A       P570 ATWOOD AVE N                          SAINT PETERSBURG            FL33702    MGR PREAD                JOSHUA                4718 PARADISE WAY S                       SAINT PETERSBURG            FL33705    MGR PWITMER              AUSTIN                570 ATWOOD AVE N                          SAINT PETERSBURG            FL33702    MGR PBLACKMORE           THOMAS        A       570 ATWOOD AVE N                          SAINT PETERSBURG            FL33702                                                                                                                                                                                                                                                                                                                                                                                                        
P21000000020CFJ ELECTRONICS, INC.                                                                                                                                                                           ADOMP           1595 SEMORAN NORTH CIRCLE                 APT # 201                                 WINTER PARK                   32792       1595 SEMORAN NORTH CIRCLE                 APT # 201                                 WINTER PARK                 FL32792     US01012021              N        FL                                       JEAN                MACKENSON             P1595 SEMORAN NORTH CIRCLE                 WINTER PARK                 FL32792    P   PJEAN                MACKENSON             1595 SEMORAN NORTH CIRCLE                 WINTER PARK                 FL32792                                                                                                                                                                                                                                                                                                                                                                                                                                                                                                                                                                                                                                                                        
L21000000070INH COMPANY LLC                                                                                                                                                                                 AFLAL           403 SW 103RD AVE                                                                    PEMBROKE PINES                33025       403 SW 103RD AVE                                                                    PEMBROKE PINES              FL33025     US12152020              N        FL                                       AL-MASSALKHI        MOHAMAD               P403 SW 103RD AVE                          PEMBROKE PINES              FL33025    MGR PAL-MASSALKHI        MOHAMAD               403 SW 103RD AVE                          PEMBROKE PINES              FL33025    MGR PHAMZE               IMAD                  2480 NW 64TH AVE                          SUNRISE                     FL33313                                                                                                                                                                                                                                                                                                                                                                                                                                                                                                                                        
L21000000080SHIELD HOME WATCH ORLANDO LLC                                                                                                                                                                   AFLAL           4543 WINDERWOOD CIRCLE, ORLANDO, FL                                                 ORLANDO                       32835       4543 WINDERWOOD CIRCLE, ORLANDO, FL                                                 ORLANDO                     FL32835       01012021              N        FL                                       TAYLOR              NATHANIEL             P4543 WINDERWOOD CIRCLE, ORLANDO, FL       ORLANDO                     FL32835    CEO PNATHANIEL           TAYLOR                4543 WINDERWOOD CIRCLE, ORLANDO, FL       ORLANDO                     FL32835                                                                                                                                                                                                                                                                                                                                                                                                                                                                                                                                                                                                                                                                        
P21000000030LAEMAX CORP.                                                                                                                                                                                    ADOMP           14206 SQUIRREL RUN                                                                  ORLANDO                       32828       14206 SQUIRREL RUN                                                                  ORLANDO                     FL32828       12302020              N        FL                                       SPIEGEL & UTRERA, P.A.                    C1840 SW 22ND ST.                          MIAMI                       FL33145    P   PHOLLANT             GERARD                14206 SQUIRREL RUN                        ORLANDO                     FL32828    S   PHOLLANT             GERARD                14206 SQUIRREL RUN                        ORLANDO                     FL32828                                                                                                                                                                                                                                                                                                                                                                                                                                                                                                                                        
L21000000090CREATIVE PROPERTIES OF FL, LLC                                                                                                                                                                  AFLAL           200 S HOOVER BLVD #145                                                              TAMPA                         33609       PO BOX 41603                                                                        ST PETERSBURG               FL33743     US01012021              N        FL                                       BENNETT             STACY         L       P200 S HOOVER BLVD #145                    TAMPA                       FL33609    AMBRPBENNETT             STACY         L       PO BOX 41603                              ST PETERSBURG               FL33743                                                                                                                                                                                                                                                                                                                                                                                                                                                                                                                                                                                                                                                                        
L21000000100SUN COAST CARRIER & TRANSIT L.L.C.                                                                                                                                                              AFLAL           2330 NW 180TH TER                                                                   MIAMI GARDENS                 33056       2330 NW 180TH TER                                                                   MIAMI GARDENS               FL33056     US03012021              N        FL                                       NICOLEAU            BUCKLEY       L       P2330 NW 180TH TER                         MIAMI GARDENS               FL33056    MGR PNICOLEAU            BUCKLEY       L       2330 NW 180TH TER                         MIAMI GARDENS               FL33056    MGR PNICOLEAU            LIONEL                2330 NW 180TH TER                         MIAMI GARDENS               FL33056                                                                                                                                                                                                                                                                                                                                                                                                                                                                                                                                        
L21000000110DIRT DUTY LLC                                                                                                                                                                                   AFLAL           8865 LAMBERT LANE                                                                   ORLANDO                       32825       8865 LAMBERT LANE                                                                   ORLANDO                     FL32825       12152020              N        FL                                       ALPHONSE            MICHAEL               P8865 LAMBERT LANE                         ORLANDO                     FL32825    MGRMPALPHONSE            MICHAEL               8865 LAMBERT LANE                         ORLANDO                     FL32825    MBR PLESLIE              MEGAN                 8865 LAMBERT LANE                         ORLANDO                     FL32825                                                                                                                                                                                                                                                                                                                                                                                                                                                                                                                                        
L21000000120OMNI SOLUTIONS PRO LLC                                                                                                                                                                          AFLAL           3233 FALCON POINT DR                                                                KISSIMMEE                     34741       3233 FALCON POINT DR                                                                KISSIMMEE                   FL34741       12202020              N        FL                                       REVERON             DIANE                 P3233 FALCON POINT DR                      KISSIMMEE                   FL34741    MGR PREVERON             DIANE                 3233 FALCON POINT DR                      KISSIMMEE                   FL34741    MGR PTAVAREZ             JEANNETTE             243 OLD MILL CIR                          KISSIMMEE                   FL34746                                                                                                                                                                                                                                                                                                                                                                                                                                                                                                                                        
L21000000130RODRIGUEZ TRINITY PAINTING LLC                                                                                                                                                                  AFLAL           3820 LOSCO RD                             APT 322                                   JACKSONVILLE                  32257       3820 LOSCO RD                             APT 322                                   JACKSONVILLE                FL32257       12212020              N        FL                                       RODRIGUEZ MENDEZ    JUAN          C       P3820 LOSCO RD APT 322                     JACKSONVILLE                FL32257    MGR PRODRIGUEZ MENDEZ    JUAN          C       3820 LOSCO RD APT 322                     JACKSONVILLE                FL32257    MGR PHERNANDEZ OLGUIN    VERONICA              3820 LOSCO RD APT 322                     JACKSONVILLE                FL32257                                                                                                                                                                                                                                                                                                                                                                                                                                                                                                                                        
P21000000040WICKED WALLS INC.                                                                                                                                                                               ADOMP           2769 WESTBROOK CT.                                                                  TALLAHASSEE                   32303       2769 WESTBROOK CT.                                                                  TALLAHASSEE                 FL32303     UN01012021              N        FL                                       BUSBY               JILLYAN       N       P2769 WESTBROOK CT.                        TALLAHASSEE                 FL32303    CEO PBUSBY               JILLYAN       N       2769 WESTBROOK CT.                        TALLAHASSEE                 FL32303    CFO PPAULSEN             CLAUDETTE     A       9201 SUNSET STRIP                         SUNRISE                     FL33322    COO PPAULSEN             DARREN        P       9201 SUNSET STRIP                         SUNRISE                     FL33322                                                                                                                                                                                                                                                                                                                                                                                                        
L21000000140MCKENZIE AUGUSTA, LLC                                                                                                                                                                           AFLAL           2226 2ND AVENUE N                                                                   ST PETERSBURG                 33713       2226 2ND AVENUE N                                                                   ST PETERSBURG               FL33713       12202020              N        FL                                       AUGUSTA             MCKENZIE              P2226 2ND AVENUE N                         ST PETERSBURG               FL33713    MGR PAUGUSTA             MCKENZIE              2226 2ND AVENUE N                         ST PETERSBURG               FL33713                                                                                                                                                                                                                                                                                                                                                                                                                                                                                                                                                                                                                                                                        
L21000000150SALT COUNTRY PROPERTY MANAGEMENT, LLC.                                                                                                                                                          AFLAL           5078 WILLOW POND RD W                                                               WEST PALM BEACH               33417       5078 WILLOW POND RD W                                                               WEST PALM BEACH             FL33417     UN12202020              N        FL                                       LEWIS               MATTHEW       J       P5078 WILLOW POND RD W                     WEST PALM BEACH             FL33417    MGR PLEWIS               MATTHEW       J       5078 WILLOW POND RD W                     WEST PALM BEACH             FL33417                                                                                                                                                                                                                                                                                                                                                                                                                                                                                                                                                                                                                                                                        
L21000000160MUSTARD SEED PROPERTY GROUP, LLC                                                                                                                                                                AFLAL           845 N GARLAND AVE, STE 100                                                          ORLANDO                       32801       845 N GARLAND AVE, STE 100                                                          ORLANDO                     FL32801       12302020              N        FL                                       MEDEIROS SOUZA CORP                       C845 N GARLAND AVE, STE 100                ORLANDO                     FL32801    MGR PGREEN               JAMES                 16192 COASTAL HIGHWAY                     LEWES                       DE19958    AMBRCBARA CONSULTING, LLC                      16192 COASTAL HIGHWAY                     LEWES                       DE19958                                                                                                                                                                                                                                                                                                                                                                                                                                                                                                                                        
L21000000170COBRA PRESSURE WASHING LLC                                                                                                                                                                      AFLAL           3624 PERICLES AVE.                                                                  NORTH PORT                    34286       3624 PERICLES AVE.                                                                  NORTH PORT                  FL34286     US01012021              N        FL                                       LONGSTREET          TYLRE         J       P3624 PERICLES AVE.                        NORTH PORT                  FL34286    MGR PLONGSTREET          TYLRE         J       3624 PERICLES AVE.                        NORTH PORT                  FL34286                                                                                                                                                                                                                                                                                                                                                                                                                                                                                                                                                                                                                                                                        
L21000000180THE DOGGIE & CAT BLING LLC                                                                                                                                                                      AFLAL           12401 ORANGE GROVE DR.                    APT. 1516                                 TAMPA                         33618       12401 ORANGE GROVE DR.                    APT. 1516                                 TAMPA                       FL33618       12182020              N        FL                                       SMITH               LUCILE                P12401 ORANGE GROVE DR.                    TAMPA                       FL33688    AMBRPSMITH               LUCILE                12401 ORANGE GROVE DR. APT.1516           TAMPA                       FL33618                                                                                                                                                                                                                                                                                                                                                                                                                                                                                                                                                                                                                                                                        
L21000000190AIRGLADES HOLDINGS LLC                                                                                                                                                                          AFLAL           1047 MAYFORD LAKE RD                                                                MOORE HAVEN                   33471       1047 MAYFORD LAKE RD                                                                MOORE HAVEN                 FL33471       12202020              N        FL                                       VACA                JUAN          F       P1047 MAYFORD LAKE RD                      MOORE HAVEN                 FL33471    MGR PVACA                JUAN          F       1047 MAYFORD LAKE RD                      MOORE HAVEN                 FL33471                                                                                                                                                                                                                                                                                                                                                                                                                                                                                                                                                                                                                                                                        
L21000000200PURESOURCE ASCENSION, LLC                                                                                                                                                                       AFLAL           7920 N. NOB HILL ROAD #201                                                          TAMARAC                       33321       7920 N. NOB HILL ROAD #201                                                          TAMARAC                     FL33321       12212020              N        FL                                       ZIFER               NANCY                 P7920 N. NOB HILL ROAD #201                TAMARAC                     FL33321    AMBRCTHE NANCY ZIFER SOCIETY,  PMA             7920 N. NOB HILL ROAD #201                TAMARAC                     FL33321                                                                                                                                                                                                                                                                                                                                                                                                                                                                                                                                                                                                                                                                        
L21000000210CORPORATE ACCOUNT SOLUTIONS, LLC                                                                                                                                                                AFLAL           4821 N GRADY AVE                                                                    TAMPA                         33614       4821 N GRADY AVE                                                                    TAMPA                       FL33614       04182005               12302020FL                                       CT CORPORATION SYSTEM                     C1200 S PINE ISLAND RD                     PLANTATION                  FL33324                                                                                                                                                                                                                                                                                                                                                                                                                                                                                                                                                                                                                                                                                                                                                                                                        
P21000000050Z & M FABULOUS FABRIC DESIGNS, CORP.                                                                                                                                                            ADOMP           616 SW 22 AV                                                                        MIAMI                         33135       616 SW 22 AV                                                                        MIAMI                       FL33135     US01012021              N        FL                                       BASULTO             ZULAY                 P616 SW 22ND AV                            MIAMI                       FL33135    PRESPBASULTO             ZULAY                 616 SW 22 AVE                             MIAMI                       FL33135    VP  PRAMOS               MAYRA         D       616 SW 22 AVE                             MIAMI                       FL33135                                                                                                                                                                                                                                                                                                                                                                                                                                                                                                                                        
L21000000220STOUT VENTURE GROUP LLC                                                                                                                                                                         AFLAL           3902 MELALEUCA LANE                       111                                       LAKE WORTH                    33461       3902 MELALEUCA LANE                       111                                       LAKE WORTH                  FL33461     US12212020              N        FL                                       STOUT               JOHN                  P3902 MELALEUCA LANE                       LAKE WORTH                  FL334461   AMBRPSTOUT               JOHN                  3902 MELALEUCA LANE SUITE 1111            LAKE WORTH                  FL33461                                                                                                                                                                                                                                                                                                                                                                                                                                                                                                                                                                                                                                                                        
L21000000230RTJ 2, LLC                                                                                                                                                                                      AFLAL           13180 LIVINGSTON ROAD                     SUITE 204                                 NAPLES                        34109       13180 LIVINGSTON ROAD                     SUITE 204                                 NAPLES                      FL34109       12212020              N        FL                                       JOHNS               RANDY                 P13180 LIVINGSTON ROAD                     NAPLES                      FL34109    AMBRPJOHNS               RANDY                 13180 LIVINGSTON ROAD STE 204             NAPLES                      FL34109    AMBRPJOHNS               TYLER                 13180 LIVINGSTON ROAD STE 204             NAPLES                      FL34109                                                                                                                                                                                                                                                                                                                                                                                                                                                                                                                                        
L21000000240OPTIONS WAVES LLC                                                                                                                                                                               AFLAL           4145 SW 111TH AVE                                                                   MIAMI                         33175       4145 SW 111TH AVE                                                                   MIAMI                       FL33175     US01012021              N        FL                                       HERRAIZ             NICHOLAS              P4145 SW 111TH AVE                         MIAMI                       FL33175    MGR PHERRAIZ             NICHOLAS              4145 SW 111TH AVE                         MIAMI                       FL33175                                                                                                                                                                                                                                                                                                                                                                                                                                                                                                                                                                                                                                                                        
L21000000250BELL EXPRESS TRANSPORT, LLC                                                                                                                                                                     AFLAL           3415 NW 176TH TERRACE                                                               MIAMI GARDENS                 33056       3415 NW 176TH TERRACE                                                               MIAMI GARDENS               FL33056       01302021              N        FL                                       OLIVER              SHANRIKA      L       P3415 NW 176TH TERRACE                     MIAMI GARDENS               FL33056    MGR PBELL                RASHARD               3415 NW 176TH TERRACE                     MIAMI GARDENS               FL33056                                                                                                                                                                                                                                                                                                                                                                                                                                                                                                                                                                                                                                                                        
P21000000060LASTRA REALTY, P.A.                                                                                                                                                                             ADOMP           994 NE 42 PL                                                                        HOMESTEAD                     33033       994 NE 42 PL                                                                        HOMESTEAD                   FL33033       01012021              N        FL                                       LASTRA              REGLA                 P994 NE 42 PL                              HOMESTEAD                   FL33033    P   PLASTRA              REGLA                 994 NE 42 PL                              HOMESTEAD                   FL33033                                                                                                                                                                                                                                                                                                                                                                                                                                                                                                                                                                                                                                                                        
L21000000260HOME AND LAWN CARE LLC                                                                                                                                                                          AFLAL           15 DARROW DR                                                                        MIRAMAR BEACH                 32550       15 DARROW DR                                                                        MIRAMAR BEACH               FL32550       01022021              N        FL                                       JONES               CHRISTOPHER   W       P15 DARROW DR                              MIRAMAR BEACH               FL32550    MGRMPJONES               CHRISTOPHER   W       15 DARROW DR                              MIRAMAR BEACH               FL32550                                                                                                                                                                                                                                                                                                                                                                                                                                                                                                                                                                                                                                                                        
L210000002701012 VENTURES LLC                                                                                                                                                                               AFLAL           4114 CLUBHOUSE ROAD                       SUITE 471                                 HIGHLAND CITY                 33846       4114 CLUBHOUSE ROAD                       SUITE 471                                 HIGHLAND CITY               FL33846     US12202020              N        FL                                       GEORGE              BENJAMIN              P4114 CLUBHOUSE ROAD                       HIGHLAND CITY               FL33846    MGR PGEORGE              BENJAMIN              4114 CLUBHOUSE ROAD SUITE 471             HIGHLAND CITY               FL33846                                                                                                                                                                                                                                                                                                                                                                                                                                                                                                                                                                                                                                                                        
L21000000280VANT PLEN LLC                                                                                                                                                                                   AFLAL           1025 E HALLANDALE BEACH BLVD              SUITE 15 - 791                            HALLANDALE BEACH              33009       1025 E HALLANDALE BEACH BLVD              SUITE 15 - 791                            HALLANDALE BEACH            FL33009     US12212020              N        FL                                       ESTAVIEN            JONIEL                P1025 E HALLANDALE BEACH BLVD              HALLANDALE BEACH            FL33009    MGR PESTAVIEN            JONIEL                1025 E HALLANDALE BEACH BLVD, STE 15-791  HALLANDALE BEACH            FL33009                                                                                                                                                                                                                                                                                                                                                                                                                                                                                                                                                                                                                                                                        
L21000000290LIME FROG MEDIA, LLC.                                                                                                                                                                           AFLAL           195 E. FAIRFIELD DR                       SUITE D                                   PENSACOLA                     32503       PO BOX 2002                                                                         PENSACOLA                   FL32513       01012021              N        FL                                       STEFON              PAUL          C       P195 E. FAIRFIELD DR.                      PENSACOLA                   FL32503    MGR PSTEFON              PAUL          C       195 E. FAIRFIELD DR, SUITE D              PENSACOLA                   FL32503                                                                                                                                                                                                                                                                                                                                                                                                                                                                                                                                                                                                                                                                        
L21000000300THE HERB EXPERIENCE, LLC                                                                                                                                                                        AFLAL           1713 PRIMROSE CT                                                                    PORT SAINT LUCIE              34952       1713 PRIMROSE CT                                                                    PORT SAINT LUCIE            FL34952     US12212020              N        FL                                       LUISERON            MICHAEL               P1713 PRIMROSE CT                          PORT SAINT LUCIE            FL34952    P   PLUISERON            MICHAEL               1713 PRIMROSE CT                          PORT SAINT LUCIE            FL34952    MGR PGEDEON              JANES         S       1713 PRIMROSE CT                          PORT SAINT LUCIE            FL34952                                                                                                                                                                                                                                                                                                                                                                                                                                                                                                                                        
L21000000310THE FLIPPING MONEY "L.L.C."                                                                                                                                                                     AFLAL           1304 SANTA ANITA STREET                                                             ORLADO                        32808       1304 SANTA ANITA STREET                                                             ORLADO                      FL32808       01012021              N        FL                                       JACKSON             MARC ARTHUR           P1304 SANTA ANITA STREET                   ORLANDO                     FL32808    MGR PJACKSON             MARC ARTHUR           1304 SANTA ANITA STREET                   ORLANDO                     FL32808                                                                                                                                                                                                                                                                                                                                                                                                                                                                                                                                                                                                                                                                        
L21000000320FADED LINE UPS LLC                                                                                                                                                                              AFLAL           8380 CRYSTAL HARBOUR DR                   UNIT 202                                  TAMPA                         33615       8380 CRYSTAL HARBOUR DR                   UNIT 202                                  TAMPA                       FL33615     UN12212020              N        FL                                       REYES               BRANDON       C       P8380 CRYSTAL HARBOUR DR                   TAMPA                       FL33615    AMBRPREYES               BRANDON       C       8380 CRYSTAL HARBOUR DR UNIT 202          TAMPA                       FL33615                                                                                                                                                                                                                                                                                                                                                                                                                                                                                                                                                                                                                                                                        
L21000000330BEELINE ACQUISITION, LLC                                                                                                                                                                        AFLAL           12735 GRAN BAY PKWY STE 130                                                         JACKSONVILLE                  32258       12735 GRAN BAY PKWY STE 130                                                         JACKSONVILLE                FL32258       01312008               12302020FL                                       CT CORPORATION SYSTEM                     C1200 S PINE ISLAND RD                     PLANTATION                  FL33324                                                                                                                                                                                                                                                                                                                                                                                                                                                                                                                                                                                                                                                                                                                                                                                                        
L21000000340SANDCASTLE NORTH RENTALS, LLC                                                                                                                                                                   AFLAL           7038 WAX LEAF CT                                                                    PORT RICHEY                   34668       P.O. BOX 1176                                                                       NEW PORT RICHEY             FL34656       12312020              N        FL                                       MANTEKAS            JEAN          E       P7038 WAX LEAF CT                          PORT RICHEY                 FLF34668   AMBRPMANTEKAS            JEAN          E       7038 WAX LEAF CT                          PORT RICHEY                 FL34668    MGR PMANTEKAS            JEAN          E       7038 WAX LEAF CT                          PORT RICHEY                 FL34668    MGR PMANTEKAS            JESSICA       C       511 FAYETTEVILLE ST #2007                 RALEIGH                     NC27601                                                                                                                                                                                                                                                                                                                                                                                                        
L21000000350SWEAT LAB, LLC                                                                                                                                                                                  AFLAL           2488 20TH AVENUE NORTH                                                              ST. PETERSBURG                33713       2488 20TH AVENUE NORTH                                                              ST. PETERSBURG              FL33713       01012021              N        FL                                       STABILE             JODI                  P3240 14TH STREET N.                       ST. PETERSBURG              FL33704    MGR PSTABILE             JODI                  3240 14TH STREET N.                       ST. PETERSBURG              FL33704                                                                                                                                                                                                                                                                                                                                                                                                                                                                                                                                                                                                                                                                        
L21000000360ON POINT TRADE LLC                                                                                                                                                                              AFLAL           20231 NE 10TH CT                                                                    MIAMI                         33179       20231 NE 10TH CT                                                                    MIAMI                       FL33179       12212020              N        FL                                       CALDERON            DANIEL        R       P20231 NE 10TH CT                          MIAMI                       FL33179    MGR PMORENO GALINDO      FABIAN                20231 EN 10TH CT                          MIAMI                       FL33179    MGR PCALDERON            DANIEL                20231 NE 10TH CT                          MIAMI                       FL33179                                                                                                                                                                                                                                                                                                                                                                                                                                                                                                                                        
L21000000370REALTY TRANSACTION SERVICES, LLC                                                                                                                                                                AFLAL           400 64TH AVENUE                           UNIT 1102                                 ST. PETE BEACH                33706       400 64TH AVENUE                           UNIT 1102                                 ST. PETE BEACH              FL33706       01012021              N        FL                                       CILIBERTI           RACHEL        A       P400 64TH AVENUE                           ST. PETE BEACH              FL33706    CEO PCILIBERTI           RACHEL        A       400 64TH AVENUE, UNIT 1102                ST. PETE BEACH              FL33706                                                                                                                                                                                                                                                                                                                                                                                                                                                                                                                                                                                                                                                                        
P21000000070SUNSET LIQUOR & SPIRITS, INC                                                                                                                                                                    ADOMP           7012 CLARK ST                                                                       HUDSON                        34667       9118 BARN STAPLE                                                                    JACKSONVILLE                FL32257       01042021              N        FL                                       SAFAR               MAHFOUZ               P7012 CLARK ST                             HUDSON                      FL34667    P   PSAFAR               MAHFOUZ               7012 CLARK ST                             HUDSON                      FL34667                                                                                                                                                                                                                                                                                                                                                                                                                                                                                                                                                                                                                                                                        
L21000000380DC ELITE TRAINING LLC                                                                                                                                                                           AFLAL           809 GOMEZ AVE                                                                       TAMPA                         33609       809 GOMEZ AVE                                                                       TAMPA                       FL33609     US01012021              N        FL                                       CIFELLI             DINA                  P809 GOMEZ AVE                             TAMPA                       FL33609    AMBRPCIFELLI             DINA                  809 GOMEZ AVE                             TAMPA                       F 33609                                                                                                                                                                                                                                                                                                                                                                                                                                                                                                                                                                                                                                                                        
L21000000390107 E BABCOCK, LLC                                                                                                                                                                              AFLAL           5073 PATTERSON RD                                                                   BOZEMAN                       59718       5073 PATTERSON RD                                                                   BOZEMAN                     MT59718     US12302020              N        FL                                       GUETTLER            ANTHONY       P       P979 BEACHLAND BLVD                        VERO BEACH                  FL32963    MGR PSCULLY              RANDOLPH      P       5073 PATTERSON RD                         BOZEMAN                     MT59718                                                                                                                                                                                                                                                                                                                                                                                                                                                                                                                                                                                                                                                                        
L21000000400HOLCOMB PROPERTIES, LLC                                                                                                                                                                         AFLAL           1450 ST. JOHNS BLUFF RD. N                                                          JACKSONVILLE                  32225       3653 REGENT BLVD                          UNIT 606                                  JACKSONVILLE                FL32224     US12212020              N        FL                                       HOLCOMB             MICHAEL       E       P4463 HARBOUR NORTH CT                     JACKSONVILLE                FL32225    CEO PHOLCOMB             MICHAEL       E       4463 HARBOUR NORTH CT                     JACKSONVILLE                FL32225    P   PHOLCOMB             REBECCA       A       4463 HARBOUR NORTH CT                     JACKSONVILLE                FL32225    VP  PLEWIS               RACHEL        E       11420 SWEET CHERRY LN S                   JACKSONVILLE                FL32225                                                                                                                                                                                                                                                                                                                                                                                                        
L21000000410BLIND TECH STUDIO,  LLC                                                                                                                                                                         AFLAL           16141 SW 7TH ST                                                                     PEMBROKE PINES                33027       16141 SW 7TH ST                                                                     PEMBROKE PINES              FL33027     UN12212020              N        FL                                       ARBITMAN            MELISSA               P16141 SW 7TH ST                           PEMBROKE PINES              FL33027    MGR PARBITMAN            MELISSA               16141 SW 7TH ST                           PEMBROKE PINES              FL33027    MGR PARBITMAN            MICHAEL       A       16141 SW 7TH ST                           PEMBROKE PINES              FL33027                                                                                                                                                                                                                                                                                                                                                                                                                                                                                                                                        
L21000000420MISSY'S GIFTS LLC                                                                                                                                                                               AFLAL           562 N WICKHAM RD                          APT 123                                   PALMBAY                       32935       562 N WICKHAM RD                          APT 123                                   PALMBAY                     FL32935     UN01012021              N        FL                                       KARLIN              MELISSA       N       P562 N WICKHAM RD                          PALMBAY                     FL32935    MGR PKARLIN              MELISSA       N       562 N WICKHAM RD, APT 123                 PALMBAY                     FL32935    AP  PMOORE               MATTHEW       J       562 N WICKHAM RD, APT 123                 PALMBAY                     FL32935                                                                                                                                                                                                                                                                                                                                                                                                                                                                                                                                        
L21000000430GREEN PASTURES LOGISTICS LLC                                                                                                                                                                    AFLAL           3616 HARDEN BLVD                          249                                       LAKELAND                      33803       3616 HARDEN BLVD                          249                                       LAKELAND                    FL33803       01012021              N        FL                                       ESPOLA              DEBORAH       A       P3616 HARDEN BLVD                          LAKELAND                    FL33803    MGR PESPOLA              DEBORAH       A       3616 HARDEN BLVD, #249                    LAKELAND                    FL33803                                                                                                                                                                                                                                                                                                                                                                                                                                                                                                                                                                                                                                                                        
L21000000440BAMBOO TRUCKING LLC                                                                                                                                                                             AFLAL           1878 BISCAYNE BAY CIRCLE                                                            JACKSONVILLE                  32218       1878 BISCAYNE BAY CIRCLE                                                            JACKSONVILLE                FL32218       12212020              N        FL                                       HODGE               KIARA                 P1878 BISCAYNE BAY CIRCLE                  JACKSONVILLE                FL32218    MGR PHODGE               KIARA         S       1878 BISCAYNE BAY CIRCLE                  JACKSONVILLE                FL32218                                                                                                                                                                                                                                                                                                                                                                                                                                                                                                                                                                                                                                                                        
L21000000450FINANCIALLY SANE SERVICES, LLC                                                                                                                                                                  AFLAL           4300 BISCAYNE BLVD                        STE 203                                   MIAMI                         33137       4300 BISCAYNE BLVD                        STE 203                                   MIAMI                       FL33137       12152020              N        FL                                       REYNOLDS            ANGEL         R       P4300 BISCAYNE BLVD                        MIAMI                       FL33137    CEO PREYNOLDS            ANGEL         R       4300 BISCAYNE BLVD, STE 203               MIAMI                       FL33137                                                                                                                                                                                                                                                                                                                                                                                                                                                                                                                                                                                                                                                                        
L21000000460THOMAS MICHAEL HAYES LLC                                                                                                                                                                        AFLAL           15829 ROBIN HILL LOOP                                                               CLERMONT                      34714       15829 ROBIN HILL LOOP                                                               CLERMONT                    FL34714     US01012021              N        FL                                       HAYES               THOMAS        M       P15829 ROBIN HILL LOOP                     CLERMONT                    FL34714    MGR PHAYES               THOMAS        M       15829 ROBIN HILL LOOP                     CLERMONT                    FL34714                                                                                                                                                                                                                                                                                                                                                                                                                                                                                                                                                                                                                                                                        
P21000000080MARILIA CLEANING. CORP                                                                                                                                                                          ADOMP           651 NW 82 AVE                             APT 117                                   MIAMI, FL 33126               33126       651 NW 82 AVE                             APT 117                                   MIAMI, FL 33126             FL33126       02202021              N        FL                                       GONZALEZ            MARILIA               P651 NW 82 AVE                             MIAMI                       FL33126    P   PGONZALEZ            MARILIA               651 NW 82 AVE                             MIAMI, FL 33126             FL33126                                                                                                                                                                                                                                                                                                                                                                                                                                                                                                                                                                                                                                                                        
L210000004707380 OAKMOSS LLC                                                                                                                                                                                AFLAL           3225 MCLEOD DR                            SUITE 100                                 LAS VEGAS                     89121       3225 MCLEOD DR                            SUITE 100                                 LAS VEGAS                   NV89121     US12212020              N        FL                                       ANDERSON REGISTERED AGENTS, INC           C12001 RESEARCH PARKWAY                    ORLANDO                     FL32826    AMBRC6 STARS LLC                               1718 CAPITOL AVE.                         CHEYENNE                    WY82001                                                                                                                                                                                                                                                                                                                                                                                                                                                                                                                                                                                                                                                                        
L210000004802230 ALLAPATTAH LLC                                                                                                                                                                             AFLAL           150 SOUTHEAST 2ND AVENUE                                                            MIAMI                         33131       150 SOUTHEAST 2ND AVENUE                                                            MIAMI                       FL33131       12212020              N        FL                                       REGISTERED AGENTS INC.                    C7901 4TH ST N                             ST. PETERSBURG              FL33702    AMBRCMES CAPITAL LIMITED                       150 SOUTHEAST 2ND AVENUE                  MIAMI                       FL33131                                                                                                                                                                                                                                                                                                                                                                                                                                                                                                                                                                                                                                                                        
L21000000490GOOD BURGER 100 PERCENT PLANT BASED LLC                                                                                                                                                         AFLAL           6075 STONELER RD                                                                    TALLAHASSEE                   32303       6075 STONELER RD                                                                    TALLAHASSEE                 FL32303     US12202020              N        FL                                       BYRD                ANTOWAN       L       P6075 STONELER RD                          TALLAHASSEE                 FL32303    MGR PBYRD                ANTOWAN       L       6075 STONELER RD                          TALLAHASSEE                 FL32303                                                                                                                                                                                                                                                                                                                                                                                                                                                                                                                                                                                                                                                                        
P21000000090NAPLES LUX GOLF CORP.                                                                                                                                                                           ADOMP           2307 TRADITION WAY, 202                                                             NAPLES                        34105       2307 TRADITION WAY, 202                                                             NAPLES                      FL34105     US12212020              N        FL                                       BONASERA            LAURIE                P520 PRINCETON GREENS CT                   SUN CITY CENTER             FL33573    P   PTRUBIANO            LISA                  2307 TRADITION WAY, 202                   NAPLES                      FL34105    TRE PFLANIGAN            MICHAEL               2307 TRADITION WAY, 202                   NAPLES                      FL34105    SEC PFLANIGAN            MICHAEL               2307 TRADITION WAY, 202                   NAPLES                      FL34105    VP  PFLANIGAN            MICHAEL               2307 TRADITION WAY, 202                   NAPLES                      FL34105    DIR PFLANIGAN            MICHAEL               2307 TRADITION WAY, 202                   NAPLES                      FL34105    DIR PTRUBIANO            LISA                  2307 TRADITION WAY, 202                   NAPLES                      FL34105        
L21000000500D.BARBSCOLLECTION LLC                                                                                                                                                                           AFLAL           16120 NW 17TH CT                                                                    MIAMI                         33054       16120 NW 17TH CT                                                                    MIAMI                       FL33054       12212020              N        FL                                       BOUSSIQUOT          DAZIANA               P16120 NW 17TH CT                          MIAMI                       FL33054    AMBRPBOUSSIQUOT          DAZIANA               16120 NW 17TH CT                          MIAMI                       FL33054                                                                                                                                                                                                                                                                                                                                                                                                                                                                                                                                                                                                                                                                        
L21000000510NOT JUST DUST CLEANING SERVICE LLC                                                                                                                                                              AFLAL           642 KENWICK CIRCLE                        APT 202                                   CASSELBERRY                   32707       642 KENWICK CIRCLE                        APT 202                                   CASSELBERRY                   32707       01012021              N        FL                                       MEDINA -LIMON       AMBAR P.              P642 KENWICK CIRCLE                        CASSELBERRY                 FL32707    AP  PMEDINA-LIMON        AMBAR P.              642 KENWICK CIRCLE APT 202                CASSELBERRY                 FL32707                                                                                                                                                                                                                                                                                                                                                                                                                                                                                                                                                                                                                                                                        
L21000000520SIMPLE SOLUTIONS PRESSURE WASHING AND SOFT WASH, LLC                                                                                                                                            AFLAL           24401 53RD AVE E                                                                    MYAKKA CITY                   34251       24401 53RD AVE E                                                                    MYAKKA CITY                 FL34251       12212020              N        FL                                       MCAVOY              DALE                  P24401 53RD AVE E                          MYAKKA CITY                 FL34251    MGR PMCAVOY              DALE                  24401 53RD AVE E                          MYAKKA CITY                 FL34251                                                                                                                                                                                                                                                                                                                                                                                                                                                                                                                                                                                                                                                                        
L21000000530ASHLEY ABA SERVICES LLC                                                                                                                                                                         AFLAL           14201 SW 288TH TER                                                                  HOMESTEAD                     33033       14201 SW 288TH TER                                                                  HOMESTEAD                   FL33033       12212020              N        FL                                       CARDONA             ASHLEY        N       P14201 SW 288TH TER                        HOMESTEAD                   FL33033    AMBRPCARDONA             ASHLEY        N       ASHLEY NICOLE CARDONA                     HOMESTEAD                   FL33033                                                                                                                                                                                                                                                                                                                                                                                                                                                                                                                                                                                                                                                                        
L21000000540ANTHEM BUSINESS SOFTWARE, LLC                                                                                                                                                                   AFLAL           8815 CONROY WINDERMERE ROAD               #413                                      ORLANDO                       32835       8815 CONROY WINDERMERE ROAD               #413                                      ORLANDO                     FL32835       12212020              N        FL                                       DEGRAIDE            ADAM          D       P8815 CONROY WINDERMERE ROAD               ORLANDO                     FL32835    AMBRPDEGRAIDE            ADAM          D       8815 CONROY WINDERMERE ROAD, #413         ORLANDO                     FL32835                                                                                                                                                                                                                                                                                                                                                                                                                                                                                                                                                                                                                                                                        
L21000000550LEVIN GOLF, LLC                                                                                                                                                                                 AFLAL           2323 SW SPOONBILL DR.                                                               PALM CITY                     34990       2323 SW SPOONBILL DR.                                                               PALM CITY                   FL34990       01012021              N        FL                                       LEVIN               ERIC          C       P2323 SW SPOONBILL DR.                     PALM CITY                   FL34990    MGR PLEVIN               ERIC          C       2323 SW SPOONBILL DR.                     PALM CITY                   FL34990                                                                                                                                                                                                                                                                                                                                                                                                                                                                                                                                                                                                                                                                        
N21000000010FYDO INC                                                                                                                                                                                        ADOMNP          9250 NW 14TH CT                                                                     PLANTATION                    33322       9250 NW 14TH CT                                                                     PLANTATION                  FL33322       12302020              N        FL                                       UNITED STATES CORPORATION AGENTS, INC     C5575 S. SEMORAN BLVD., SUITE 36           ORLANDO                     FL32822    PD  CPENNY DABESTANI                           9250 NW 14TH CT                           PLANTATION                  FL33322    SD  CPARISSA DABESTANI                         10129 UNIVERSITOTY PARK LANE              CHAROTTE                    NC28213    TD  CROBERT DABESTANIE                         261 DOUGHTON LANE                         CHAROTTE                    NC28217    D   CEASTON DABESTANO                          261 DOUGHTON LANE                         CHARLOTTE                   NC28217                                                                                                                                                                                                                                                                        
M21000000010ACCELMED PARTNERS II MANAGEMENT, LLC                                                                                                                                                            AFORL           2875 NE 191ST, STE. 515                                                             AVENTURA                      33180       2875 NE 191ST, STE. 515                                                             AVENTURA                    FL33180       12302020842694985     N        DE                                       GEIGER              URI                   P1670 DAYTONA RD.                          MIAMI BEACH                 FL33141    MGR PGEIGER              URI                   1670 DAYTONA RD.                          MIAMI BEACH                 FL33141    MBR PGEIGER              URI                   1670 DAYTONA RD.                          MIAMI BEACH                 FL33141                                                                                                                                                                                                                                                                                                                                                                                                                                                                                                                                        
L21000000560JAMES PAUL MANAGEMENT, LLC                                                                                                                                                                      AFLAL           5701 FT DENAUD RD                                                                   LABELLE                       33935       P.O. BOX 2357                                                                       LABELLE                     FL33975     US12212020              N        FL                                       DLF REGISTERED AGENT SERVICE, LLC         C10181 SIX MILE CYPRESS PARKWAY            FORT MYERS                  FL33966    MGR PPAUL                JAMES         C       P O BOX 2357                              LABELLE                     FL33975                                                                                                                                                                                                                                                                                                                                                                                                                                                                                                                                                                                                                                                                        
P21000000100LET THEM TALK CO                                                                                                                                                                                ADOMP           20431 NW 17TH AVE                         UNIT 305                                  MIAMI GARDENS                 33056       20431 NW 17TH AVE                         UNIT 305                                  MIAMI GARDENS               FL33056     US12202020              N        FL                                       JOSEPH              JEANETTA      D       P20431 NW 17TH AVE                         MIAMI GARDENS               FL33056    CEO PJOSEPH              JEANETTA      D       20431 NW 17TH AVE                         MIAMI GARDENS               FL33056                                                                                                                                                                                                                                                                                                                                                                                                                                                                                                                                                                                                                                                                        
L21000000570JONATHAN ROCHESTER WOLAVER LLC                                                                                                                                                                  AFLAL           5207 TERI LN.                                                                       PARKER                        32404       5207 TERI LN.                                                                       PARKER                      FL32404       01012021              N        FL                                       WOLAVER             JONATHAN      R       P5207 TERI LN.                             PARKER                      FL32404    MGR PWOLAVER             JONATHAN      R       5207 TERI LN.                             PARKER                      FL32404    AR  PKRISTINA            WOLAVER               5207 TERI LN.                             PARKER                      FL32404                                                                                                                                                                                                                                                                                                                                                                                                                                                                                                                                        
L21000000580RKR CUSTOM FINISHING LLC                                                                                                                                                                        AFLAL           7315 TRACE VIEW LN                        202                                       ORLANDO                       32807       7315 TRACE VIEW LN                        202                                       ORLANDO                     FL32807     US12212020              N        FL                                       CRUZ RODRIGUEZ      RAUL          I       P7315 TRACE VIEW LN                        ORLANDO                     FL32807    MGR PCRUZ RODRIGUEZ      RAUL          I       7315 TRACE VIEW LN, 202                   ORLANDO                     FL32807                                                                                                                                                                                                                                                                                                                                                                                                                                                                                                                                                                                                                                                                        
L21000000590GIRASOLES PROPERTIES LLC                                                                                                                                                                        AFLAL           2665 NW 100TH AVENUE                                                                DORAL                         33172       2665 NW 100TH AVENUE                                                                DORAL                       FL33172       12212020              N        FL                                       DR. VICTORIA GARCIA & ASSOCIATES,LLC      C3650 NW 82 AVENUE                         DORAL                       FL33166    AMBRPGARCIA              VICTORIA      E       2665 NW 100TH AVENUE                      DORAL                       FL33172                                                                                                                                                                                                                                                                                                                                                                                                                                                                                                                                                                                                                                                                        
